{
  "contractName": "Bounties",
  "abi": [
    {
      "constant": true,
      "inputs": [
        {
          "name": "",
          "type": "uint256"
        }
      ],
      "name": "bounties",
      "outputs": [
        {
          "name": "issuer",
          "type": "address"
        },
        {
          "name": "deadline",
          "type": "uint256"
        },
        {
          "name": "data",
          "type": "string"
        },
        {
          "name": "status",
          "type": "uint8"
        },
        {
          "name": "amount",
          "type": "uint256"
        }
      ],
      "payable": false,
      "stateMutability": "view",
      "type": "function"
    },
    {
      "inputs": [],
      "payable": false,
      "stateMutability": "nonpayable",
      "type": "constructor"
    },
    {
      "anonymous": false,
      "inputs": [
        {
          "indexed": false,
          "name": "bounty_id",
          "type": "uint256"
        },
        {
          "indexed": false,
          "name": "issuer",
          "type": "address"
        },
        {
          "indexed": false,
          "name": "amount",
          "type": "uint256"
        },
        {
          "indexed": false,
          "name": "data",
          "type": "string"
        }
      ],
      "name": "BountyIssued",
      "type": "event"
    },
    {
      "anonymous": false,
      "inputs": [
        {
          "indexed": false,
          "name": "bounty_id",
          "type": "uint256"
        },
        {
          "indexed": false,
          "name": "fulfiller",
          "type": "address"
        },
        {
          "indexed": false,
          "name": "fulfillment_id",
          "type": "uint256"
        },
        {
          "indexed": false,
          "name": "data",
          "type": "string"
        }
      ],
      "name": "BountyFulfilled",
      "type": "event"
    },
    {
      "anonymous": false,
      "inputs": [
        {
          "indexed": false,
          "name": "bounty_id",
          "type": "uint256"
        },
        {
          "indexed": false,
          "name": "issuer",
          "type": "address"
        },
        {
          "indexed": false,
          "name": "fulfiller",
          "type": "address"
        },
        {
          "indexed": true,
          "name": "fulfillment_id",
          "type": "uint256"
        },
        {
          "indexed": false,
          "name": "amount",
          "type": "uint256"
        }
      ],
      "name": "FulfillmentAccepted",
      "type": "event"
    },
    {
      "anonymous": false,
      "inputs": [
        {
          "indexed": true,
          "name": "bounty_id",
          "type": "uint256"
        },
        {
          "indexed": true,
          "name": "issuer",
          "type": "address"
        },
        {
          "indexed": false,
          "name": "amount",
          "type": "uint256"
        }
      ],
      "name": "BountyCancelled",
      "type": "event"
    },
    {
      "constant": false,
      "inputs": [
        {
          "name": "_data",
          "type": "string"
        },
        {
          "name": "_deadline",
          "type": "uint256"
        }
      ],
      "name": "issueBounty",
      "outputs": [
        {
          "name": "",
          "type": "uint256"
        }
      ],
      "payable": true,
      "stateMutability": "payable",
      "type": "function"
    },
    {
      "constant": false,
      "inputs": [
        {
          "name": "_bountyId",
          "type": "uint256"
        },
        {
          "name": "_data",
          "type": "string"
        }
      ],
      "name": "fulfillBounty",
      "outputs": [],
      "payable": false,
      "stateMutability": "nonpayable",
      "type": "function"
    },
    {
      "constant": false,
      "inputs": [
        {
          "name": "_bountyId",
          "type": "uint256"
        },
        {
          "name": "_fulfillmentId",
          "type": "uint256"
        }
      ],
      "name": "acceptFulfillment",
      "outputs": [],
      "payable": false,
      "stateMutability": "nonpayable",
      "type": "function"
    },
    {
      "constant": false,
      "inputs": [
        {
          "name": "_bountyId",
          "type": "uint256"
        }
      ],
      "name": "cancelBounty",
      "outputs": [],
      "payable": false,
      "stateMutability": "nonpayable",
      "type": "function"
    }
  ],
  "bytecode": "0x608060405234801561001057600080fd5b506110a5806100206000396000f3fe60806040526004361061004a5760003560e01c80631e688c141461004f5780638e6a324014610121578063d9583497146101fa578063dc2f87441461023f578063e5e5dff114610349575b600080fd5b34801561005b57600080fd5b5061011f6004803603604081101561007257600080fd5b81019080803590602001909291908035906020019064010000000081111561009957600080fd5b8201836020820111156100ab57600080fd5b803590602001918460018302840111640100000000831117156100cd57600080fd5b91908080601f016020809104026020016040519081016040528093929190818152602001838380828437600081840152601f19601f820116905080830192505050505050509192919290505050610384565b005b6101e46004803603604081101561013757600080fd5b810190808035906020019064010000000081111561015457600080fd5b82018360208201111561016657600080fd5b8035906020019184600183028401116401000000008311171561018857600080fd5b91908080601f016020809104026020016040519081016040528093929190818152602001838380828437600081840152601f19601f82011690508083019250505050505050919291929080359060200190929190505050610683565b6040518082815260200191505060405180910390f35b34801561020657600080fd5b5061023d6004803603604081101561021d57600080fd5b8101908080359060200190929190803590602001909291905050506108b6565b005b34801561024b57600080fd5b506102786004803603602081101561026257600080fd5b8101908080359060200190929190505050610c9c565b604051808673ffffffffffffffffffffffffffffffffffffffff1673ffffffffffffffffffffffffffffffffffffffff168152602001858152602001806020018460028111156102c457fe5b60ff168152602001838152602001828103825285818151815260200191508051906020019080838360005b8381101561030a5780820151818401526020810190506102ef565b50505050905090810190601f1680156103375780820380516001836020036101000a031916815260200191505b50965050505050505060405180910390f35b34801561035557600080fd5b506103826004803603602081101561036c57600080fd5b8101908080359060200190929190505050610da4565b005b81600080549050811061039657600080fd5b82600081815481106103a457fe5b906000526020600020906005020160000160009054906101000a900473ffffffffffffffffffffffffffffffffffffffff1673ffffffffffffffffffffffffffffffffffffffff163373ffffffffffffffffffffffffffffffffffffffff16141561040e57600080fd5b83600080600281111561041d57fe5b6000838154811061042a57fe5b906000526020600020906005020160030160009054906101000a900460ff16600281111561045457fe5b1461045e57600080fd5b856000818154811061046c57fe5b906000526020600020906005020160010154421061048957600080fd5b6001600088815260200190815260200160002060405180606001604052806000151581526020013373ffffffffffffffffffffffffffffffffffffffff168152602001888152509080600181540180825580915050906001820390600052602060002090600202016000909192909190915060008201518160000160006101000a81548160ff02191690831515021790555060208201518160000160016101000a81548173ffffffffffffffffffffffffffffffffffffffff021916908373ffffffffffffffffffffffffffffffffffffffff160217905550604082015181600101908051906020019061057e929190610fd4565b505050507fc4f0fe8da4c31907c5e6741ec9f6c2761aef2c6f0aa407d1f22b1420932631b3873360018060008c8152602001908152602001600020805490500389604051808581526020018473ffffffffffffffffffffffffffffffffffffffff1673ffffffffffffffffffffffffffffffffffffffff16815260200183815260200180602001828103825283818151815260200191508051906020019080838360005b8381101561063d578082015181840152602081019050610622565b50505050905090810190601f16801561066a5780820380516001836020036101000a031916815260200191505b509550505050505060405180910390a150505050505050565b600080341161069157600080fd5b4282014281116106a057600080fd5b60006040518060a001604052803373ffffffffffffffffffffffffffffffffffffffff1681526020014286018152602001868152602001600060028111156106e457fe5b8152602001348152509080600181540180825580915050906001820390600052602060002090600502016000909192909190915060008201518160000160006101000a81548173ffffffffffffffffffffffffffffffffffffffff021916908373ffffffffffffffffffffffffffffffffffffffff160217905550602082015181600101556040820151816002019080519060200190610785929190610fd4565b5060608201518160030160006101000a81548160ff021916908360028111156107aa57fe5b0217905550608082015181600401555050507fba1576d8891bfe57a45ac4b986d4a4aa912c62f44771d4eec8ab2ce06e3be5b7600160008054905003333487604051808581526020018473ffffffffffffffffffffffffffffffffffffffff1673ffffffffffffffffffffffffffffffffffffffff16815260200183815260200180602001828103825283818151815260200191508051906020019080838360005b8381101561086757808201518184015260208101905061084c565b50505050905090810190601f1680156108945780820380516001836020036101000a031916815260200191505b509550505050505060405180910390a160016000805490500391505092915050565b8160008054905081106108c857600080fd5b8282600160008381526020019081526020016000208054905081106108ec57600080fd5b84600081815481106108fa57fe5b906000526020600020906005020160000160009054906101000a900473ffffffffffffffffffffffffffffffffffffffff1673ffffffffffffffffffffffffffffffffffffffff163373ffffffffffffffffffffffffffffffffffffffff161461096357600080fd5b85600080600281111561097257fe5b6000838154811061097f57fe5b906000526020600020906005020160030160009054906101000a900460ff1660028111156109a957fe5b146109b357600080fd5b8787600015156001600084815260200190815260200160002082815481106109d757fe5b906000526020600020906002020160000160009054906101000a900460ff16151514610a0257600080fd5b60018060008c81526020019081526020016000208a81548110610a2157fe5b906000526020600020906002020160000160006101000a81548160ff021916908315150217905550600160008b81548110610a5857fe5b906000526020600020906005020160030160006101000a81548160ff02191690836002811115610a8457fe5b0217905550600160008b81526020019081526020016000208981548110610aa757fe5b906000526020600020906002020160000160019054906101000a900473ffffffffffffffffffffffffffffffffffffffff1673ffffffffffffffffffffffffffffffffffffffff166108fc60008c81548110610aff57fe5b9060005260206000209060050201600401549081150290604051600060405180830381858888f19350505050158015610b3c573d6000803e3d6000fd5b50887f85d45a4e923ea9b336558bcd434d3f474644affd5df115bba14b63e75425bde48b60008d81548110610b6d57fe5b906000526020600020906005020160000160009054906101000a900473ffffffffffffffffffffffffffffffffffffffff16600160008f81526020019081526020016000208d81548110610bbd57fe5b906000526020600020906002020160000160019054906101000a900473ffffffffffffffffffffffffffffffffffffffff1660008f81548110610bfc57fe5b906000526020600020906005020160040154604051808581526020018473ffffffffffffffffffffffffffffffffffffffff1673ffffffffffffffffffffffffffffffffffffffff1681526020018373ffffffffffffffffffffffffffffffffffffffff1673ffffffffffffffffffffffffffffffffffffffff16815260200182815260200194505050505060405180910390a250505050505050505050565b60008181548110610ca957fe5b90600052602060002090600502016000915090508060000160009054906101000a900473ffffffffffffffffffffffffffffffffffffffff1690806001015490806002018054600181600116156101000203166002900480601f016020809104026020016040519081016040528092919081815260200182805460018160011615610100020316600290048015610d815780601f10610d5657610100808354040283529160200191610d81565b820191906000526020600020905b815481529060010190602001808311610d6457829003601f168201915b5050505050908060030160009054906101000a900460ff16908060040154905085565b806000805490508110610db657600080fd5b8160008181548110610dc457fe5b906000526020600020906005020160000160009054906101000a900473ffffffffffffffffffffffffffffffffffffffff1673ffffffffffffffffffffffffffffffffffffffff163373ffffffffffffffffffffffffffffffffffffffff1614610e2d57600080fd5b826000806002811115610e3c57fe5b60008381548110610e4957fe5b906000526020600020906005020160030160009054906101000a900460ff166002811115610e7357fe5b14610e7d57600080fd5b600260008681548110610e8c57fe5b906000526020600020906005020160030160006101000a81548160ff02191690836002811115610eb857fe5b021790555060008581548110610eca57fe5b906000526020600020906005020160000160009054906101000a900473ffffffffffffffffffffffffffffffffffffffff1673ffffffffffffffffffffffffffffffffffffffff166108fc60008781548110610f2257fe5b9060005260206000209060050201600401549081150290604051600060405180830381858888f19350505050158015610f5f573d6000803e3d6000fd5b503373ffffffffffffffffffffffffffffffffffffffff16857fb9670bf4f2273686f771c9ab65309436df5ed75afa63eefec8b67640d8bcf72c60008881548110610fa657fe5b9060005260206000209060050201600401546040518082815260200191505060405180910390a35050505050565b828054600181600116156101000203166002900490600052602060002090601f016020900481019282601f1061101557805160ff1916838001178555611043565b82800160010185558215611043579182015b82811115611042578251825591602001919060010190611027565b5b5090506110509190611054565b5090565b61107691905b8082111561107257600081600090555060010161105a565b5090565b9056fea165627a7a723058202d555e110fcb7de087fd24bd119c4b9a7d78ce623f8b10a6b91e4909118b00940029",
  "source": "pragma solidity ^0.5.0;\n\nimport '@openzeppelin/contracts/math/SafeMath.sol';\n\n/**\n * @dev Simple smart contract which allows any user to issue a bounty in ETH linked to requirements stored in ipfs\n * which anyone can fufill by submitting the ipfs hash which contains evidence of their fufillment\n */\ncontract Bounties {\n\n  using SafeMath for uint;\n\n  enum BountyStatus { CREATED, ACCEPTED, CANCELLED }\n\n  Bounty[] public bounties;\n  \n  mapping(uint=>Fulfillment[]) fulfillments;\n\n  struct Bounty {\n      address payable issuer;\n      uint deadline;\n      string data;\n      BountyStatus status;\n      uint amount; //in wei\n  }\n  \n\n  struct Fulfillment {\n      bool accepted;\n      address payable fulfiller;\n      string data;\n  }\n\n  //Modifiers\n\n  modifier hasValue() {require(msg.value > 0); _;}\n  \n  modifier bountyExists(uint _bountyId){require(_bountyId < bounties.length); _;}\n\n  modifier fulfillmentExists(uint _bountyId, uint _fulfillmentId){\n    require(_fulfillmentId < fulfillments[_bountyId].length);\n    _;\n  }\n\n  modifier hasStatus(uint _bountyId, BountyStatus _desiredStatus) {\n    require(bounties[_bountyId].status == _desiredStatus);\n    _;\n  }\n\n  modifier onlyIssuer(uint _bountyId) {\n      require(msg.sender == bounties[_bountyId].issuer);\n      _;\n  }\n\n  modifier notIssuer(uint _bountyId) {\n      require(msg.sender != bounties[_bountyId].issuer);\n      _;\n  }\n\n  modifier fulfillmentNotYetAccepted(uint _bountyId, uint _fulfillmentId) {\n    require(fulfillments[_bountyId][_fulfillmentId].accepted == false);\n    _;\n  }\n\n  modifier validateDeadline(uint _newDeadline) {\n      require(_newDeadline > now);\n      _;\n  }\n\n  modifier isBeforeDeadline(uint _bountyId) {\n    require(now < bounties[_bountyId].deadline);\n    _;\n  }\n\n\n  event BountyIssued(uint bounty_id, address issuer, uint amount, string data);\n  event BountyFulfilled(uint bounty_id, address fulfiller, uint fulfillment_id, string data);\n  event FulfillmentAccepted(uint bounty_id, address issuer, address fulfiller, uint indexed fulfillment_id, uint amount);\n  event BountyCancelled(uint indexed bounty_id, address indexed issuer, uint amount);\n\n  constructor() public {}\n\n  /**\n  * @dev issueBounty(): instantiates a new bounty\n  * @param _deadline the unix timestamp after which fulfillments will no longer be accepted\n  * @param _data the requirements of the bounty\n  */\n  function issueBounty(string memory _data, uint _deadline)\n      public\n      payable\n      hasValue()\n      validateDeadline(_deadline+now)\n      returns (uint)\n  {\n      bounties.push(Bounty(msg.sender, _deadline+now, _data, BountyStatus.CREATED, msg.value));\n      emit BountyIssued(bounties.length - 1,msg.sender, msg.value, _data);\n      return (bounties.length - 1);\n  }\n  \n  /**\n  * @dev fulfillBounty(): submit a fulfillment for the given bounty\n  * @param _bountyId the index of the bounty to be fufilled\n  * @param _data the ipfs hash which contains evidence of the fufillment\n  */\n  function fulfillBounty(uint _bountyId, string memory _data)\n    public\n    bountyExists(_bountyId)\n    notIssuer(_bountyId)\n    hasStatus(_bountyId, BountyStatus.CREATED)\n    isBeforeDeadline(_bountyId)\n  {\n    fulfillments[_bountyId].push(Fulfillment(false, msg.sender, _data));\n    emit BountyFulfilled(_bountyId, msg.sender, (fulfillments[_bountyId].length - 1),_data);\n  }\n\n  /**\n  * @dev acceptFulfillment(): accept a given fulfillment\n  * @param _bountyId the index of the bounty\n  * @param _fulfillmentId the index of the fulfillment being accepted\n  */\n  function acceptFulfillment(uint _bountyId, uint _fulfillmentId)\n      public\n      bountyExists(_bountyId)\n      fulfillmentExists(_bountyId,_fulfillmentId)\n      onlyIssuer(_bountyId)\n      hasStatus(_bountyId, BountyStatus.CREATED)\n      fulfillmentNotYetAccepted(_bountyId, _fulfillmentId)\n  {\n      fulfillments[_bountyId][_fulfillmentId].accepted = true;\n      bounties[_bountyId].status = BountyStatus.ACCEPTED;\n      fulfillments[_bountyId][_fulfillmentId].fulfiller.transfer(bounties[_bountyId].amount);\n      emit FulfillmentAccepted(_bountyId, bounties[_bountyId].issuer, fulfillments[_bountyId][_fulfillmentId].fulfiller, _fulfillmentId, bounties[_bountyId].amount);\n  }\n\n  /** @dev cancelBounty(): cancels the bounty and send the funds back to the issuer\n  * @param _bountyId the index of the bounty\n  */\n  function cancelBounty(uint _bountyId)\n      public\n      bountyExists(_bountyId)\n      onlyIssuer(_bountyId)\n      hasStatus(_bountyId, BountyStatus.CREATED)\n  {\n      bounties[_bountyId].status = BountyStatus.CANCELLED;\n      bounties[_bountyId].issuer.transfer(bounties[_bountyId].amount);\n      emit BountyCancelled(_bountyId, msg.sender, bounties[_bountyId].amount);\n  }\n  \n}",
  "sourcePath": "/Users/RLNYC/Desktop/Consensys/bounty_market/contracts/Bounties.sol",
  "compiler": {
    "name": "solc",
    "version": "0.5.8+commit.23d335f2.Emscripten.clang"
  },
  "schemaVersion": "3.0.11",
  "updatedAt": "2019-08-01T05:38:46.566Z",
  "devdoc": {
    "details": "Simple smart contract which allows any user to issue a bounty in ETH linked to requirements stored in ipfs which anyone can fufill by submitting the ipfs hash which contains evidence of their fufillment",
    "methods": {
      "acceptFulfillment(uint256,uint256)": {
        "details": "acceptFulfillment(): accept a given fulfillment",
        "params": {
          "_bountyId": "the index of the bounty",
          "_fulfillmentId": "the index of the fulfillment being accepted"
        }
      },
      "cancelBounty(uint256)": {
        "details": "cancelBounty(): cancels the bounty and send the funds back to the issuer",
        "params": {
          "_bountyId": "the index of the bounty"
        }
      },
      "fulfillBounty(uint256,string)": {
        "details": "fulfillBounty(): submit a fulfillment for the given bounty",
        "params": {
          "_bountyId": "the index of the bounty to be fufilled",
          "_data": "the ipfs hash which contains evidence of the fufillment"
        }
      },
      "issueBounty(string,uint256)": {
        "details": "issueBounty(): instantiates a new bounty",
        "params": {
          "_data": "the requirements of the bounty",
          "_deadline": "the unix timestamp after which fulfillments will no longer be accepted"
        }
      }
    }
  },
  "userdoc": {
    "methods": {}
  }
}